0175641170004545          030320211120                                                                                                                                                                  
1C0051880016ALISSON                                 99999999999999            000                    SALARIO   00000000000010099          000NSALARIO                                                   
1C0051880016ALISSON                                 99999999999999            000                    SALARIO   00000000000010199          000NSALARIO                                                   
1C0051880016ALISSON                                 99999999999999            000                    SALARIO   00000000000010299          000NSALARIO                                                   
1C0051880016ALISSON                                 99999999999999            000                    SALARIO   00000000000010399          000NSALARIO                                                   
1C0051880016ALISSON                                 99999999999999            000                    SALARIO   00000000000010499          000NSALARIO                                                   
1C0051880016ALISSON                                 99999999999999            000                    SALARIO   00000000000010599          000NSALARIO                                                   
1C0051880016ALISSON                                 99999999999999            000                    SALARIO   00000000000010699          000NSALARIO                                                   
1C0051880016ALISSON                                 99999999999999            000                    SALARIO   00000000000010799          000NSALARIO                                                   
1C0051880016ALISSON                                 99999999999999            000                    SALARIO   00000000000010899          000NSALARIO                                                   
1C0051880016ALISSON                                 99999999999999            000                    SALARIO   00000000000010999          000NSALARIO                                                   
1C0051880016ALISSON                                 99999999999999            000                    SALARIO   00000000000011099          000NSALARIO                                                   
1C0051880016ALISSON                                 99999999999999            000                    SALARIO   00000000000011199          000NSALARIO                                                   
1C0051880016ALISSON                                 99999999999999            000                    SALARIO   00000000000011299          000NSALARIO                                                   
1C0051880016ALISSON                                 99999999999999            000                    SALARIO   00000000000011399          000NSALARIO                                                   
1C0051880016ALISSON                                 99999999999999            000                    SALARIO   00000000000011499          000NSALARIO                                                   
1C0051880016ALISSON                                 99999999999999            000                    SALARIO   00000000000011599          000NSALARIO                                                   
1C0051880016ALISSON                                 99999999999999            000                    SALARIO   00000000000011699          000NSALARIO                                                   
1C0051880016ALISSON                                 99999999999999            000                    SALARIO   00000000000011799          000NSALARIO                                                   
1C0051880016ALISSON                                 99999999999999            000                    SALARIO   00000000000011899          000NSALARIO                                                   
1C0051880016ALISSON                                 99999999999999            000                    SALARIO   00000000000011999          000NSALARIO                                                   
1C0051880016ALISSON                                 99999999999999            000                    SALARIO   00000000000012099          000NSALARIO                                                   
1C0051880016ALISSON                                 99999999999999            000                    SALARIO   00000000000012199          000NSALARIO                                                   
1C0051880016ALISSON                                 99999999999999            000                    SALARIO   00000000000012299          000NSALARIO                                                   
1C0051880016ALISSON                                 99999999999999            000                    SALARIO   00000000000012399          000NSALARIO                                                   
1C0051880016ALISSON                                 99999999999999            000                    SALARIO   00000000000012499          000NSALARIO                                                   
1C0051880016ALISSON                                 99999999999999            000                    SALARIO   00000000000012599          000NSALARIO                                                   
1C0051880016ALISSON                                 99999999999999            000                    SALARIO   00000000000012699          000NSALARIO                                                   
1C0051880016ALISSON                                 99999999999999            000                    SALARIO   00000000000012799          000NSALARIO                                                   
1C0051880016ALISSON                                 99999999999999            000                    SALARIO   00000000000012899          000NSALARIO                                                   
900000000000000000000000002900000000000333471                                                                                                                                                           